{
  "_format": "hh-sol-artifact-1",
  "contractName": "Miness",
  "sourceName": "contracts/Miness.sol",
  "abi": [
    {
      "inputs": [],
      "stateMutability": "nonpayable",
      "type": "constructor"
    },
    {
      "anonymous": false,
      "inputs": [
        {
          "indexed": true,
          "internalType": "address",
          "name": "owner",
          "type": "address"
        },
        {
          "indexed": true,
          "internalType": "address",
          "name": "approved",
          "type": "address"
        },
        {
          "indexed": true,
          "internalType": "uint256",
          "name": "tokenId",
          "type": "uint256"
        }
      ],
      "name": "Approval",
      "type": "event"
    },
    {
      "anonymous": false,
      "inputs": [
        {
          "indexed": true,
          "internalType": "address",
          "name": "owner",
          "type": "address"
        },
        {
          "indexed": true,
          "internalType": "address",
          "name": "operator",
          "type": "address"
        },
        {
          "indexed": false,
          "internalType": "bool",
          "name": "approved",
          "type": "bool"
        }
      ],
      "name": "ApprovalForAll",
      "type": "event"
    },
    {
      "anonymous": false,
      "inputs": [
        {
          "indexed": false,
          "internalType": "uint256",
          "name": "tokenId",
          "type": "uint256"
        },
        {
          "indexed": false,
          "internalType": "address",
          "name": "owner",
          "type": "address"
        }
      ],
      "name": "Minted",
      "type": "event"
    },
    {
      "anonymous": false,
      "inputs": [
        {
          "indexed": true,
          "internalType": "address",
          "name": "previousOwner",
          "type": "address"
        },
        {
          "indexed": true,
          "internalType": "address",
          "name": "newOwner",
          "type": "address"
        }
      ],
      "name": "OwnershipTransferred",
      "type": "event"
    },
    {
      "anonymous": false,
      "inputs": [
        {
          "indexed": true,
          "internalType": "address",
          "name": "from",
          "type": "address"
        },
        {
          "indexed": true,
          "internalType": "address",
          "name": "to",
          "type": "address"
        },
        {
          "indexed": true,
          "internalType": "uint256",
          "name": "tokenId",
          "type": "uint256"
        }
      ],
      "name": "Transfer",
      "type": "event"
    },
    {
      "inputs": [],
      "name": "MAX_TOKENS",
      "outputs": [
        {
          "internalType": "uint256",
          "name": "",
          "type": "uint256"
        }
      ],
      "stateMutability": "view",
      "type": "function"
    },
    {
      "inputs": [
        {
          "internalType": "address[]",
          "name": "addresses",
          "type": "address[]"
        }
      ],
      "name": "addToPresaleList",
      "outputs": [],
      "stateMutability": "nonpayable",
      "type": "function"
    },
    {
      "inputs": [
        {
          "internalType": "address",
          "name": "to",
          "type": "address"
        },
        {
          "internalType": "uint256",
          "name": "tokenId",
          "type": "uint256"
        }
      ],
      "name": "approve",
      "outputs": [],
      "stateMutability": "nonpayable",
      "type": "function"
    },
    {
      "inputs": [
        {
          "internalType": "address",
          "name": "owner",
          "type": "address"
        }
      ],
      "name": "balanceOf",
      "outputs": [
        {
          "internalType": "uint256",
          "name": "",
          "type": "uint256"
        }
      ],
      "stateMutability": "view",
      "type": "function"
    },
    {
      "inputs": [],
      "name": "baseURI",
      "outputs": [
        {
          "internalType": "string",
          "name": "",
          "type": "string"
        }
      ],
      "stateMutability": "view",
      "type": "function"
    },
    {
      "inputs": [],
      "name": "devReserve",
      "outputs": [
        {
          "internalType": "uint256",
          "name": "",
          "type": "uint256"
        }
      ],
      "stateMutability": "view",
      "type": "function"
    },
    {
      "inputs": [
        {
          "internalType": "uint256",
          "name": "tokenId",
          "type": "uint256"
        }
      ],
      "name": "getApproved",
      "outputs": [
        {
          "internalType": "address",
          "name": "",
          "type": "address"
        }
      ],
      "stateMutability": "view",
      "type": "function"
    },
    {
      "inputs": [
        {
          "internalType": "address",
          "name": "owner",
          "type": "address"
        },
        {
          "internalType": "address",
          "name": "operator",
          "type": "address"
        }
      ],
      "name": "isApprovedForAll",
      "outputs": [
        {
          "internalType": "bool",
          "name": "",
          "type": "bool"
        }
      ],
      "stateMutability": "view",
      "type": "function"
    },
    {
      "inputs": [],
      "name": "isRevealed",
      "outputs": [
        {
          "internalType": "bool",
          "name": "",
          "type": "bool"
        }
      ],
      "stateMutability": "view",
      "type": "function"
    },
    {
      "inputs": [],
      "name": "maxTokenPurchase",
      "outputs": [
        {
          "internalType": "uint256",
          "name": "",
          "type": "uint256"
        }
      ],
      "stateMutability": "view",
      "type": "function"
    },
    {
      "inputs": [
        {
          "internalType": "uint256",
          "name": "numberOfTokens",
          "type": "uint256"
        }
      ],
      "name": "mint",
      "outputs": [],
      "stateMutability": "payable",
      "type": "function"
    },
    {
      "inputs": [],
      "name": "name",
      "outputs": [
        {
          "internalType": "string",
          "name": "",
          "type": "string"
        }
      ],
      "stateMutability": "view",
      "type": "function"
    },
    {
      "inputs": [
        {
          "internalType": "address",
          "name": "addr",
          "type": "address"
        }
      ],
      "name": "onPreSaleList",
      "outputs": [
        {
          "internalType": "bool",
          "name": "",
          "type": "bool"
        }
      ],
      "stateMutability": "view",
      "type": "function"
    },
    {
      "inputs": [],
      "name": "owner",
      "outputs": [
        {
          "internalType": "address",
          "name": "",
          "type": "address"
        }
      ],
      "stateMutability": "view",
      "type": "function"
    },
    {
      "inputs": [
        {
          "internalType": "uint256",
          "name": "tokenId",
          "type": "uint256"
        }
      ],
      "name": "ownerOf",
      "outputs": [
        {
          "internalType": "address",
          "name": "",
          "type": "address"
        }
      ],
      "stateMutability": "view",
      "type": "function"
    },
    {
      "inputs": [
        {
          "internalType": "uint256",
          "name": "numberOfTokens",
          "type": "uint256"
        }
      ],
      "name": "presale",
      "outputs": [],
      "stateMutability": "payable",
      "type": "function"
    },
    {
      "inputs": [],
      "name": "presaleIsActive",
      "outputs": [
        {
          "internalType": "bool",
          "name": "",
          "type": "bool"
        }
      ],
      "stateMutability": "view",
      "type": "function"
    },
    {
      "inputs": [],
      "name": "presaleMaxMint",
      "outputs": [
        {
          "internalType": "uint256",
          "name": "",
          "type": "uint256"
        }
      ],
      "stateMutability": "view",
      "type": "function"
    },
    {
      "inputs": [
        {
          "internalType": "address[]",
          "name": "addresses",
          "type": "address[]"
        }
      ],
      "name": "removeFromPresaleList",
      "outputs": [],
      "stateMutability": "nonpayable",
      "type": "function"
    },
    {
      "inputs": [],
      "name": "renounceOwnership",
      "outputs": [],
      "stateMutability": "nonpayable",
      "type": "function"
    },
    {
      "inputs": [
        {
          "internalType": "address",
          "name": "_to",
          "type": "address"
        },
        {
          "internalType": "uint256",
          "name": "_reserveAmount",
          "type": "uint256"
        }
      ],
      "name": "reserveTokens",
      "outputs": [],
      "stateMutability": "nonpayable",
      "type": "function"
    },
    {
      "inputs": [],
      "name": "reveal",
      "outputs": [],
      "stateMutability": "nonpayable",
      "type": "function"
    },
    {
      "inputs": [
        {
          "internalType": "address",
          "name": "from",
          "type": "address"
        },
        {
          "internalType": "address",
          "name": "to",
          "type": "address"
        },
        {
          "internalType": "uint256",
          "name": "tokenId",
          "type": "uint256"
        }
      ],
      "name": "safeTransferFrom",
      "outputs": [],
      "stateMutability": "nonpayable",
      "type": "function"
    },
    {
      "inputs": [
        {
          "internalType": "address",
          "name": "from",
          "type": "address"
        },
        {
          "internalType": "address",
          "name": "to",
          "type": "address"
        },
        {
          "internalType": "uint256",
          "name": "tokenId",
          "type": "uint256"
        },
        {
          "internalType": "bytes",
          "name": "data",
          "type": "bytes"
        }
      ],
      "name": "safeTransferFrom",
      "outputs": [],
      "stateMutability": "nonpayable",
      "type": "function"
    },
    {
      "inputs": [],
      "name": "saleIsActive",
      "outputs": [
        {
          "internalType": "bool",
          "name": "",
          "type": "bool"
        }
      ],
      "stateMutability": "view",
      "type": "function"
    },
    {
      "inputs": [
        {
          "internalType": "address",
          "name": "operator",
          "type": "address"
        },
        {
          "internalType": "bool",
          "name": "approved",
          "type": "bool"
        }
      ],
      "name": "setApprovalForAll",
      "outputs": [],
      "stateMutability": "nonpayable",
      "type": "function"
    },
    {
      "inputs": [
        {
          "internalType": "string",
          "name": "_newBaseURI",
          "type": "string"
        }
      ],
      "name": "setBaseURI",
      "outputs": [],
      "stateMutability": "nonpayable",
      "type": "function"
    },
    {
      "inputs": [
        {
          "internalType": "uint256",
          "name": "maxMint",
          "type": "uint256"
        }
      ],
      "name": "setPresaleMaxMint",
      "outputs": [],
      "stateMutability": "nonpayable",
      "type": "function"
    },
    {
      "inputs": [
        {
          "internalType": "bytes4",
          "name": "interfaceId",
          "type": "bytes4"
        }
      ],
      "name": "supportsInterface",
      "outputs": [
        {
          "internalType": "bool",
          "name": "",
          "type": "bool"
        }
      ],
      "stateMutability": "view",
      "type": "function"
    },
    {
      "inputs": [],
      "name": "symbol",
      "outputs": [
        {
          "internalType": "string",
          "name": "",
          "type": "string"
        }
      ],
      "stateMutability": "view",
      "type": "function"
    },
    {
      "inputs": [],
      "name": "togglePresaleState",
      "outputs": [],
      "stateMutability": "nonpayable",
      "type": "function"
    },
    {
      "inputs": [],
      "name": "toggleSaleState",
      "outputs": [],
      "stateMutability": "nonpayable",
      "type": "function"
    },
    {
      "inputs": [
        {
          "internalType": "uint256",
          "name": "index",
          "type": "uint256"
        }
      ],
      "name": "tokenByIndex",
      "outputs": [
        {
          "internalType": "uint256",
          "name": "",
          "type": "uint256"
        }
      ],
      "stateMutability": "view",
      "type": "function"
    },
    {
      "inputs": [
        {
          "internalType": "address",
          "name": "owner",
          "type": "address"
        },
        {
          "internalType": "uint256",
          "name": "index",
          "type": "uint256"
        }
      ],
      "name": "tokenOfOwnerByIndex",
      "outputs": [
        {
          "internalType": "uint256",
          "name": "",
          "type": "uint256"
        }
      ],
      "stateMutability": "view",
      "type": "function"
    },
    {
      "inputs": [],
      "name": "tokenPrice",
      "outputs": [
        {
          "internalType": "uint256",
          "name": "",
          "type": "uint256"
        }
      ],
      "stateMutability": "view",
      "type": "function"
    },
    {
      "inputs": [
        {
          "internalType": "uint256",
          "name": "tokenId",
          "type": "uint256"
        }
      ],
      "name": "tokenURI",
      "outputs": [
        {
          "internalType": "string",
          "name": "",
          "type": "string"
        }
      ],
      "stateMutability": "view",
      "type": "function"
    },
    {
      "inputs": [
        {
          "internalType": "address",
          "name": "_owner",
          "type": "address"
        }
      ],
      "name": "tokensOfOwner",
      "outputs": [
        {
          "internalType": "uint256[]",
          "name": "",
          "type": "uint256[]"
        }
      ],
      "stateMutability": "view",
      "type": "function"
    },
    {
      "inputs": [],
      "name": "totalSupply",
      "outputs": [
        {
          "internalType": "uint256",
          "name": "",
          "type": "uint256"
        }
      ],
      "stateMutability": "view",
      "type": "function"
    },
    {
      "inputs": [
        {
          "internalType": "address",
          "name": "from",
          "type": "address"
        },
        {
          "internalType": "address",
          "name": "to",
          "type": "address"
        },
        {
          "internalType": "uint256",
          "name": "tokenId",
          "type": "uint256"
        }
      ],
      "name": "transferFrom",
      "outputs": [],
      "stateMutability": "nonpayable",
      "type": "function"
    },
    {
      "inputs": [
        {
          "internalType": "address",
          "name": "newOwner",
          "type": "address"
        }
      ],
      "name": "transferOwnership",
      "outputs": [],
      "stateMutability": "nonpayable",
      "type": "function"
    },
    {
      "inputs": [
        {
          "internalType": "address",
          "name": "",
          "type": "address"
        }
      ],
      "name": "walletMints",
      "outputs": [
        {
          "internalType": "uint256",
          "name": "",
          "type": "uint256"
        }
      ],
      "stateMutability": "view",
      "type": "function"
    },
    {
      "inputs": [],
      "name": "withdraw",
      "outputs": [],
      "stateMutability": "payable",
      "type": "function"
    }
  ],
  "bytecode": "0x608060405260405180602001604052806000815250600b90805190602001906200002b92919062000229565b506001600c60006101000a81548160ff0219169083151502179055506000600c60016101000a81548160ff0219169083151502179055506000600c60026101000a81548160ff021916908315150217905550600260105560406011553480156200009457600080fd5b506040518060400160405280600681526020017f4d696e65737300000000000000000000000000000000000000000000000000008152506040518060400160405280600381526020017f4d5353000000000000000000000000000000000000000000000000000000000081525081600090805190602001906200011992919062000229565b5080600190805190602001906200013292919062000229565b50505062000155620001496200015b60201b60201c565b6200016360201b60201c565b6200033e565b600033905090565b6000600660009054906101000a900473ffffffffffffffffffffffffffffffffffffffff16905081600660006101000a81548173ffffffffffffffffffffffffffffffffffffffff021916908373ffffffffffffffffffffffffffffffffffffffff1602179055508173ffffffffffffffffffffffffffffffffffffffff168173ffffffffffffffffffffffffffffffffffffffff167f8be0079c531659141344cd1fd0a4f28419497f9722a3daafe3b4186f6b6457e060405160405180910390a35050565b8280546200023790620002d9565b90600052602060002090601f0160209004810192826200025b5760008555620002a7565b82601f106200027657805160ff1916838001178555620002a7565b82800160010185558215620002a7579182015b82811115620002a657825182559160200191906001019062000289565b5b509050620002b69190620002ba565b5090565b5b80821115620002d5576000816000905550600101620002bb565b5090565b60006002820490506001821680620002f257607f821691505b602082108114156200030957620003086200030f565b5b50919050565b7f4e487b7100000000000000000000000000000000000000000000000000000000600052602260045260246000fd5b614f6f806200034e6000396000f3fe6080604052600436106102515760003560e01c80637ff9b59611610139578063c87b56dd116100b6578063eb8d24441161007a578063eb8d244414610887578063f0293fd3146108b2578063f285e69e146108ef578063f2fde38b14610906578063f47c84c51461092f578063fcd2a4271461095a57610251565b8063c87b56dd146107b1578063daaeec86146107ee578063df4305d214610805578063e6ab14341461082e578063e985e9c51461084a57610251565b8063a0712d68116100fd578063a0712d6814610703578063a22cb4651461071f578063a475b5dd14610748578063b179e0601461075f578063b88d4fde1461078857610251565b80637ff9b5961461061a5780638462151c146106455780638da5cb5b14610682578063946ef42a146106ad57806395d89b41146106d857610251565b80633ccfd60b116101d25780636352211e116101965780636352211e1461050c5780636c0360eb1461054957806370a0823114610574578063715018a6146105b15780637204a3c9146105c857806378cf19e9146105f157610251565b80633ccfd60b1461044857806342842e0e146104525780634f6ccce71461047b57806354214f69146104b857806355f804b3146104e357610251565b806311576b791161021957806311576b791461034f57806318160ddd1461038c57806323b872dd146103b75780632f745c59146103e057806330f72cd41461041d57610251565b806301ffc9a71461025657806306fdde0314610293578063081812fc146102be578063095ea7b3146102fb57806309aa3dcf14610324575b600080fd5b34801561026257600080fd5b5061027d600480360381019061027891906138a5565b610985565b60405161028a9190613f9d565b60405180910390f35b34801561029f57600080fd5b506102a8610997565b6040516102b59190613fb8565b60405180910390f35b3480156102ca57600080fd5b506102e560048036038101906102e09190613938565b610a29565b6040516102f29190613f14565b60405180910390f35b34801561030757600080fd5b50610322600480360381019061031d9190613824565b610a6f565b005b34801561033057600080fd5b50610339610b87565b604051610346919061435a565b60405180910390f35b34801561035b57600080fd5b50610376600480360381019061037191906136b9565b610b8c565b6040516103839190613f9d565b60405180910390f35b34801561039857600080fd5b506103a1610be2565b6040516103ae919061435a565b60405180910390f35b3480156103c357600080fd5b506103de60048036038101906103d9919061371e565b610bef565b005b3480156103ec57600080fd5b5061040760048036038101906104029190613824565b610c4f565b604051610414919061435a565b60405180910390f35b34801561042957600080fd5b50610432610cf4565b60405161043f9190613f9d565b60405180910390f35b610450610d07565b005b34801561045e57600080fd5b506104796004803603810190610474919061371e565b610d8f565b005b34801561048757600080fd5b506104a2600480360381019061049d9190613938565b610daf565b6040516104af919061435a565b60405180910390f35b3480156104c457600080fd5b506104cd610e46565b6040516104da9190613f9d565b60405180910390f35b3480156104ef57600080fd5b5061050a600480360381019061050591906138f7565b610e59565b005b34801561051857600080fd5b50610533600480360381019061052e9190613938565b610e7b565b6040516105409190613f14565b60405180910390f35b34801561055557600080fd5b5061055e610f2d565b60405161056b9190613fb8565b60405180910390f35b34801561058057600080fd5b5061059b600480360381019061059691906136b9565b610fbb565b6040516105a8919061435a565b60405180910390f35b3480156105bd57600080fd5b506105c6611073565b005b3480156105d457600080fd5b506105ef60048036038101906105ea9190613860565b611087565b005b3480156105fd57600080fd5b5061061860048036038101906106139190613824565b611217565b005b34801561062657600080fd5b5061062f6112c5565b60405161063c919061435a565b60405180910390f35b34801561065157600080fd5b5061066c600480360381019061066791906136b9565b6112d0565b6040516106799190613f7b565b60405180910390f35b34801561068e57600080fd5b5061069761144c565b6040516106a49190613f14565b60405180910390f35b3480156106b957600080fd5b506106c2611476565b6040516106cf919061435a565b60405180910390f35b3480156106e457600080fd5b506106ed61147c565b6040516106fa9190613fb8565b60405180910390f35b61071d60048036038101906107189190613938565b61150e565b005b34801561072b57600080fd5b50610746600480360381019061074191906137e8565b6117df565b005b34801561075457600080fd5b5061075d6117f5565b005b34801561076b57600080fd5b5061078660048036038101906107819190613860565b61181a565b005b34801561079457600080fd5b506107af60048036038101906107aa919061376d565b6119aa565b005b3480156107bd57600080fd5b506107d860048036038101906107d39190613938565b611a0c565b6040516107e59190613fb8565b60405180910390f35b3480156107fa57600080fd5b50610803611ae8565b005b34801561081157600080fd5b5061082c60048036038101906108279190613938565b611b1c565b005b61084860048036038101906108439190613938565b611b2e565b005b34801561085657600080fd5b50610871600480360381019061086c91906136e2565b611e96565b60405161087e9190613f9d565b60405180910390f35b34801561089357600080fd5b5061089c611f2a565b6040516108a99190613f9d565b60405180910390f35b3480156108be57600080fd5b506108d960048036038101906108d491906136b9565b611f3d565b6040516108e6919061435a565b60405180910390f35b3480156108fb57600080fd5b50610904611f55565b005b34801561091257600080fd5b5061092d600480360381019061092891906136b9565b611f89565b005b34801561093b57600080fd5b5061094461200d565b604051610951919061435a565b60405180910390f35b34801561096657600080fd5b5061096f612012565b60405161097c919061435a565b60405180910390f35b600061099082612018565b9050919050565b6060600080546109a690614677565b80601f01602080910402602001604051908101604052809291908181526020018280546109d290614677565b8015610a1f5780601f106109f457610100808354040283529160200191610a1f565b820191906000526020600020905b815481529060010190602001808311610a0257829003601f168201915b5050505050905090565b6000610a3482612092565b6004600083815260200190815260200160002060009054906101000a900473ffffffffffffffffffffffffffffffffffffffff169050919050565b6000610a7a82610e7b565b90508073ffffffffffffffffffffffffffffffffffffffff168373ffffffffffffffffffffffffffffffffffffffff161415610aeb576040517f08c379a0000000000000000000000000000000000000000000000000000000008152600401610ae29061425a565b60405180910390fd5b8073ffffffffffffffffffffffffffffffffffffffff16610b0a6120dd565b73ffffffffffffffffffffffffffffffffffffffff161480610b395750610b3881610b336120dd565b611e96565b5b610b78576040517f08c379a0000000000000000000000000000000000000000000000000000000008152600401610b6f9061417a565b60405180910390fd5b610b8283836120e5565b505050565b600381565b6000600d60008373ffffffffffffffffffffffffffffffffffffffff1673ffffffffffffffffffffffffffffffffffffffff16815260200190815260200160002060009054906101000a900460ff169050919050565b6000600980549050905090565b610c00610bfa6120dd565b8261219e565b610c3f576040517f08c379a0000000000000000000000000000000000000000000000000000000008152600401610c36906142fa565b60405180910390fd5b610c4a838383612233565b505050565b6000610c5a83610fbb565b8210610c9b576040517f08c379a0000000000000000000000000000000000000000000000000000000008152600401610c9290613fda565b60405180910390fd5b600760008473ffffffffffffffffffffffffffffffffffffffff1673ffffffffffffffffffffffffffffffffffffffff168152602001908152602001600020600083815260200190815260200160002054905092915050565b600c60019054906101000a900460ff1681565b610d0f61249a565b6000610d1961144c565b73ffffffffffffffffffffffffffffffffffffffff1647604051610d3c90613eff565b60006040518083038185875af1925050503d8060008114610d79576040519150601f19603f3d011682016040523d82523d6000602084013e610d7e565b606091505b5050905080610d8c57600080fd5b50565b610daa838383604051806020016040528060008152506119aa565b505050565b6000610db9610be2565b8210610dfa576040517f08c379a0000000000000000000000000000000000000000000000000000000008152600401610df19061427a565b60405180910390fd5b60098281548110610e34577f4e487b7100000000000000000000000000000000000000000000000000000000600052603260045260246000fd5b90600052602060002001549050919050565b600c60029054906101000a900460ff1681565b610e6161249a565b80600b9080519060200190610e77929190613493565b5050565b6000806002600084815260200190815260200160002060009054906101000a900473ffffffffffffffffffffffffffffffffffffffff169050600073ffffffffffffffffffffffffffffffffffffffff168173ffffffffffffffffffffffffffffffffffffffff161415610f24576040517f08c379a0000000000000000000000000000000000000000000000000000000008152600401610f1b9061423a565b60405180910390fd5b80915050919050565b600b8054610f3a90614677565b80601f0160208091040260200160405190810160405280929190818152602001828054610f6690614677565b8015610fb35780601f10610f8857610100808354040283529160200191610fb3565b820191906000526020600020905b815481529060010190602001808311610f9657829003601f168201915b505050505081565b60008073ffffffffffffffffffffffffffffffffffffffff168273ffffffffffffffffffffffffffffffffffffffff16141561102c576040517f08c379a00000000000000000000000000000000000000000000000000000000081526004016110239061413a565b60405180910390fd5b600360008373ffffffffffffffffffffffffffffffffffffffff1673ffffffffffffffffffffffffffffffffffffffff168152602001908152602001600020549050919050565b61107b61249a565b6110856000612518565b565b61108f61249a565b60005b8282905081101561121257600073ffffffffffffffffffffffffffffffffffffffff168383838181106110ee577f4e487b7100000000000000000000000000000000000000000000000000000000600052603260045260246000fd5b905060200201602081019061110391906136b9565b73ffffffffffffffffffffffffffffffffffffffff16141561115a576040517f08c379a0000000000000000000000000000000000000000000000000000000008152600401611151906141da565b60405180910390fd5b6001600d6000858585818110611199577f4e487b7100000000000000000000000000000000000000000000000000000000600052603260045260246000fd5b90506020020160208101906111ae91906136b9565b73ffffffffffffffffffffffffffffffffffffffff1673ffffffffffffffffffffffffffffffffffffffff16815260200190815260200160002060006101000a81548160ff021916908315150217905550808061120a906146da565b915050611092565b505050565b61121f61249a565b60008111801561123157506011548111155b611270576040517f08c379a0000000000000000000000000000000000000000000000000000000008152600401611267906140ba565b60405180910390fd5b60005b818110156112a5576000611285610be2565b905061129184826125de565b50808061129d906146da565b915050611273565b506112bb816011546125fc90919063ffffffff16565b6011819055505050565b6606c00a3912c00081565b606060006112dd83610fbb565b9050600081141561136057600067ffffffffffffffff811115611329577f4e487b7100000000000000000000000000000000000000000000000000000000600052604160045260246000fd5b6040519080825280602002602001820160405280156113575781602001602082028036833780820191505090505b50915050611447565b60008167ffffffffffffffff8111156113a2577f4e487b7100000000000000000000000000000000000000000000000000000000600052604160045260246000fd5b6040519080825280602002602001820160405280156113d05781602001602082028036833780820191505090505b50905060005b82811015611440576113e88582610c4f565b828281518110611421577f4e487b7100000000000000000000000000000000000000000000000000000000600052603260045260246000fd5b6020026020010181815250508080611438906146da565b9150506113d6565b8193505050505b919050565b6000600660009054906101000a900473ffffffffffffffffffffffffffffffffffffffff16905090565b60105481565b60606001805461148b90614677565b80601f01602080910402602001604051908101604052809291908181526020018280546114b790614677565b80156115045780601f106114d957610100808354040283529160200191611504565b820191906000526020600020905b8154815290600101906020018083116114e757829003601f168201915b5050505050905090565b600381600f60003373ffffffffffffffffffffffffffffffffffffffff1673ffffffffffffffffffffffffffffffffffffffff1681526020019081526020016000205461155b91906144ac565b111561159c576040517f08c379a0000000000000000000000000000000000000000000000000000000008152600401611593906142ba565b60405180910390fd5b600c60009054906101000a900460ff166115eb576040517f08c379a00000000000000000000000000000000000000000000000000000000081526004016115e29061409a565b60405180910390fd5b6000811180156115fc575060038111155b61163b576040517f08c379a00000000000000000000000000000000000000000000000000000000081526004016116329061431a565b60405180910390fd5b600a61165782611649610be2565b61261290919063ffffffff16565b1115611698576040517f08c379a000000000000000000000000000000000000000000000000000000000815260040161168f9061415a565b60405180910390fd5b6116b2816606c00a3912c00061262890919063ffffffff16565b3410156116f4576040517f08c379a00000000000000000000000000000000000000000000000000000000081526004016116eb9061411a565b60405180910390fd5b60005b818110156117db57600061171c600161170e610be2565b61261290919063ffffffff16565b9050600a611728610be2565b10156117c75761173833826125de565b600f60003373ffffffffffffffffffffffffffffffffffffffff1673ffffffffffffffffffffffffffffffffffffffff1681526020019081526020016000206000815480929190611788906146da565b91905055507fb9203d657e9c0ec8274c818292ab0f58b04e1970050716891770eb1bab5d655e81336040516117be929190614375565b60405180910390a15b5080806117d3906146da565b9150506116f7565b5050565b6117f16117ea6120dd565b838361263e565b5050565b6117fd61249a565b6001600c60026101000a81548160ff021916908315150217905550565b61182261249a565b60005b828290508110156119a557600073ffffffffffffffffffffffffffffffffffffffff16838383818110611881577f4e487b7100000000000000000000000000000000000000000000000000000000600052603260045260246000fd5b905060200201602081019061189691906136b9565b73ffffffffffffffffffffffffffffffffffffffff1614156118ed576040517f08c379a00000000000000000000000000000000000000000000000000000000081526004016118e4906141da565b60405180910390fd5b6000600d600085858581811061192c577f4e487b7100000000000000000000000000000000000000000000000000000000600052603260045260246000fd5b905060200201602081019061194191906136b9565b73ffffffffffffffffffffffffffffffffffffffff1673ffffffffffffffffffffffffffffffffffffffff16815260200190815260200160002060006101000a81548160ff021916908315150217905550808061199d906146da565b915050611825565b505050565b6119bb6119b56120dd565b8361219e565b6119fa576040517f08c379a00000000000000000000000000000000000000000000000000000000081526004016119f1906142fa565b60405180910390fd5b611a06848484846127ab565b50505050565b6060611a1782612807565b611a56576040517f08c379a0000000000000000000000000000000000000000000000000000000008152600401611a4d9061421a565b60405180910390fd5b6000611a60612873565b905060001515600c60029054906101000a900460ff1615151415611a965760405180602001604052806000815250915050611ae3565b6000815111611ab45760405180602001604052806000815250611adf565b80611abe84612905565b604051602001611acf929190613ed0565b6040516020818303038152906040525b9150505b919050565b611af061249a565b600c60009054906101000a900460ff1615600c60006101000a81548160ff021916908315150217905550565b611b2461249a565b8060108190555050565b600c60019054906101000a900460ff16611b7d576040517f08c379a0000000000000000000000000000000000000000000000000000000008152600401611b749061429a565b60405180910390fd5b600d60003373ffffffffffffffffffffffffffffffffffffffff1673ffffffffffffffffffffffffffffffffffffffff16815260200190815260200160002060009054906101000a900460ff16611c09576040517f08c379a0000000000000000000000000000000000000000000000000000000008152600401611c009061407a565b60405180910390fd5b600a611c2582611c17610be2565b61261290919063ffffffff16565b1115611c66576040517f08c379a0000000000000000000000000000000000000000000000000000000008152600401611c5d906141fa565b60405180910390fd5b600081118015611c7857506010548111155b611cb7576040517f08c379a0000000000000000000000000000000000000000000000000000000008152600401611cae9061433a565b60405180910390fd5b601054611d0c82600e60003373ffffffffffffffffffffffffffffffffffffffff1673ffffffffffffffffffffffffffffffffffffffff1681526020019081526020016000205461261290919063ffffffff16565b1115611d4d576040517f08c379a0000000000000000000000000000000000000000000000000000000008152600401611d44906142da565b60405180910390fd5b611d67816606c00a3912c00061262890919063ffffffff16565b341015611da9576040517f08c379a0000000000000000000000000000000000000000000000000000000008152600401611da09061411a565b60405180910390fd5b60005b81811015611e92576000611dd16001611dc3610be2565b61261290919063ffffffff16565b9050600a611ddd610be2565b1015611e7e576001600e60003373ffffffffffffffffffffffffffffffffffffffff1673ffffffffffffffffffffffffffffffffffffffff1681526020019081526020016000206000828254611e3391906144ac565b92505081905550611e4433826125de565b7fb9203d657e9c0ec8274c818292ab0f58b04e1970050716891770eb1bab5d655e8133604051611e75929190614375565b60405180910390a15b508080611e8a906146da565b915050611dac565b5050565b6000600560008473ffffffffffffffffffffffffffffffffffffffff1673ffffffffffffffffffffffffffffffffffffffff16815260200190815260200160002060008373ffffffffffffffffffffffffffffffffffffffff1673ffffffffffffffffffffffffffffffffffffffff16815260200190815260200160002060009054906101000a900460ff16905092915050565b600c60009054906101000a900460ff1681565b600f6020528060005260406000206000915090505481565b611f5d61249a565b600c60019054906101000a900460ff1615600c60016101000a81548160ff021916908315150217905550565b611f9161249a565b600073ffffffffffffffffffffffffffffffffffffffff168173ffffffffffffffffffffffffffffffffffffffff161415612001576040517f08c379a0000000000000000000000000000000000000000000000000000000008152600401611ff89061401a565b60405180910390fd5b61200a81612518565b50565b600a81565b60115481565b60007f780e9d63000000000000000000000000000000000000000000000000000000007bffffffffffffffffffffffffffffffffffffffffffffffffffffffff1916827bffffffffffffffffffffffffffffffffffffffffffffffffffffffff1916148061208b575061208a82612ab2565b5b9050919050565b61209b81612807565b6120da576040517f08c379a00000000000000000000000000000000000000000000000000000000081526004016120d19061423a565b60405180910390fd5b50565b600033905090565b816004600083815260200190815260200160002060006101000a81548173ffffffffffffffffffffffffffffffffffffffff021916908373ffffffffffffffffffffffffffffffffffffffff160217905550808273ffffffffffffffffffffffffffffffffffffffff1661215883610e7b565b73ffffffffffffffffffffffffffffffffffffffff167f8c5be1e5ebec7d5bd14f71427d1e84f3dd0314c0f7b2291e5b200ac8c7c3b92560405160405180910390a45050565b6000806121aa83610e7b565b90508073ffffffffffffffffffffffffffffffffffffffff168473ffffffffffffffffffffffffffffffffffffffff1614806121ec57506121eb8185611e96565b5b8061222a57508373ffffffffffffffffffffffffffffffffffffffff1661221284610a29565b73ffffffffffffffffffffffffffffffffffffffff16145b91505092915050565b8273ffffffffffffffffffffffffffffffffffffffff1661225382610e7b565b73ffffffffffffffffffffffffffffffffffffffff16146122a9576040517f08c379a00000000000000000000000000000000000000000000000000000000081526004016122a09061403a565b60405180910390fd5b600073ffffffffffffffffffffffffffffffffffffffff168273ffffffffffffffffffffffffffffffffffffffff161415612319576040517f08c379a0000000000000000000000000000000000000000000000000000000008152600401612310906140da565b60405180910390fd5b612324838383612b94565b61232f6000826120e5565b6001600360008573ffffffffffffffffffffffffffffffffffffffff1673ffffffffffffffffffffffffffffffffffffffff168152602001908152602001600020600082825461237f919061458d565b925050819055506001600360008473ffffffffffffffffffffffffffffffffffffffff1673ffffffffffffffffffffffffffffffffffffffff16815260200190815260200160002060008282546123d691906144ac565b92505081905550816002600083815260200190815260200160002060006101000a81548173ffffffffffffffffffffffffffffffffffffffff021916908373ffffffffffffffffffffffffffffffffffffffff160217905550808273ffffffffffffffffffffffffffffffffffffffff168473ffffffffffffffffffffffffffffffffffffffff167fddf252ad1be2c89b69c2b068fc378daa952ba7f163c4a11628f55a4df523b3ef60405160405180910390a4612495838383612ba4565b505050565b6124a26120dd565b73ffffffffffffffffffffffffffffffffffffffff166124c061144c565b73ffffffffffffffffffffffffffffffffffffffff1614612516576040517f08c379a000000000000000000000000000000000000000000000000000000000815260040161250d906141ba565b60405180910390fd5b565b6000600660009054906101000a900473ffffffffffffffffffffffffffffffffffffffff16905081600660006101000a81548173ffffffffffffffffffffffffffffffffffffffff021916908373ffffffffffffffffffffffffffffffffffffffff1602179055508173ffffffffffffffffffffffffffffffffffffffff168173ffffffffffffffffffffffffffffffffffffffff167f8be0079c531659141344cd1fd0a4f28419497f9722a3daafe3b4186f6b6457e060405160405180910390a35050565b6125f8828260405180602001604052806000815250612ba9565b5050565b6000818361260a919061458d565b905092915050565b6000818361262091906144ac565b905092915050565b600081836126369190614533565b905092915050565b8173ffffffffffffffffffffffffffffffffffffffff168373ffffffffffffffffffffffffffffffffffffffff1614156126ad576040517f08c379a00000000000000000000000000000000000000000000000000000000081526004016126a4906140fa565b60405180910390fd5b80600560008573ffffffffffffffffffffffffffffffffffffffff1673ffffffffffffffffffffffffffffffffffffffff16815260200190815260200160002060008473ffffffffffffffffffffffffffffffffffffffff1673ffffffffffffffffffffffffffffffffffffffff16815260200190815260200160002060006101000a81548160ff0219169083151502179055508173ffffffffffffffffffffffffffffffffffffffff168373ffffffffffffffffffffffffffffffffffffffff167f17307eab39ab6107e8899845ad3d59bd9653f200f220920489ca2b5937696c318360405161279e9190613f9d565b60405180910390a3505050565b6127b6848484612233565b6127c284848484612c04565b612801576040517f08c379a00000000000000000000000000000000000000000000000000000000081526004016127f890613ffa565b60405180910390fd5b50505050565b60008073ffffffffffffffffffffffffffffffffffffffff166002600084815260200190815260200160002060009054906101000a900473ffffffffffffffffffffffffffffffffffffffff1673ffffffffffffffffffffffffffffffffffffffff1614159050919050565b6060600b805461288290614677565b80601f01602080910402602001604051908101604052809291908181526020018280546128ae90614677565b80156128fb5780601f106128d0576101008083540402835291602001916128fb565b820191906000526020600020905b8154815290600101906020018083116128de57829003601f168201915b5050505050905090565b6060600082141561294d576040518060400160405280600181526020017f30000000000000000000000000000000000000000000000000000000000000008152509050612aad565b600082905060005b6000821461297f578080612968906146da565b915050600a826129789190614502565b9150612955565b60008167ffffffffffffffff8111156129c1577f4e487b7100000000000000000000000000000000000000000000000000000000600052604160045260246000fd5b6040519080825280601f01601f1916602001820160405280156129f35781602001600182028036833780820191505090505b5090505b60008514612aa657600182612a0c919061458d565b9150600a85612a1b9190614723565b6030612a2791906144ac565b60f81b818381518110612a63577f4e487b7100000000000000000000000000000000000000000000000000000000600052603260045260246000fd5b60200101907effffffffffffffffffffffffffffffffffffffffffffffffffffffffffffff1916908160001a905350600a85612a9f9190614502565b94506129f7565b8093505050505b919050565b60007f80ac58cd000000000000000000000000000000000000000000000000000000007bffffffffffffffffffffffffffffffffffffffffffffffffffffffff1916827bffffffffffffffffffffffffffffffffffffffffffffffffffffffff19161480612b7d57507f5b5e139f000000000000000000000000000000000000000000000000000000007bffffffffffffffffffffffffffffffffffffffffffffffffffffffff1916827bffffffffffffffffffffffffffffffffffffffffffffffffffffffff1916145b80612b8d5750612b8c82612d9b565b5b9050919050565b612b9f838383612e05565b505050565b505050565b612bb38383612f19565b612bc06000848484612c04565b612bff576040517f08c379a0000000000000000000000000000000000000000000000000000000008152600401612bf690613ffa565b60405180910390fd5b505050565b6000612c258473ffffffffffffffffffffffffffffffffffffffff166130f3565b15612d8e578373ffffffffffffffffffffffffffffffffffffffff1663150b7a02612c4e6120dd565b8786866040518563ffffffff1660e01b8152600401612c709493929190613f2f565b602060405180830381600087803b158015612c8a57600080fd5b505af1925050508015612cbb57506040513d601f19601f82011682018060405250810190612cb891906138ce565b60015b612d3e573d8060008114612ceb576040519150601f19603f3d011682016040523d82523d6000602084013e612cf0565b606091505b50600081511415612d36576040517f08c379a0000000000000000000000000000000000000000000000000000000008152600401612d2d90613ffa565b60405180910390fd5b805181602001fd5b63150b7a0260e01b7bffffffffffffffffffffffffffffffffffffffffffffffffffffffff1916817bffffffffffffffffffffffffffffffffffffffffffffffffffffffff191614915050612d93565b600190505b949350505050565b60007f01ffc9a7000000000000000000000000000000000000000000000000000000007bffffffffffffffffffffffffffffffffffffffffffffffffffffffff1916827bffffffffffffffffffffffffffffffffffffffffffffffffffffffff1916149050919050565b612e10838383613116565b600073ffffffffffffffffffffffffffffffffffffffff168373ffffffffffffffffffffffffffffffffffffffff161415612e5357612e4e8161311b565b612e92565b8173ffffffffffffffffffffffffffffffffffffffff168373ffffffffffffffffffffffffffffffffffffffff1614612e9157612e908382613164565b5b5b600073ffffffffffffffffffffffffffffffffffffffff168273ffffffffffffffffffffffffffffffffffffffff161415612ed557612ed0816132d1565b612f14565b8273ffffffffffffffffffffffffffffffffffffffff168273ffffffffffffffffffffffffffffffffffffffff1614612f1357612f128282613414565b5b5b505050565b600073ffffffffffffffffffffffffffffffffffffffff168273ffffffffffffffffffffffffffffffffffffffff161415612f89576040517f08c379a0000000000000000000000000000000000000000000000000000000008152600401612f809061419a565b60405180910390fd5b612f9281612807565b15612fd2576040517f08c379a0000000000000000000000000000000000000000000000000000000008152600401612fc99061405a565b60405180910390fd5b612fde60008383612b94565b6001600360008473ffffffffffffffffffffffffffffffffffffffff1673ffffffffffffffffffffffffffffffffffffffff168152602001908152602001600020600082825461302e91906144ac565b92505081905550816002600083815260200190815260200160002060006101000a81548173ffffffffffffffffffffffffffffffffffffffff021916908373ffffffffffffffffffffffffffffffffffffffff160217905550808273ffffffffffffffffffffffffffffffffffffffff16600073ffffffffffffffffffffffffffffffffffffffff167fddf252ad1be2c89b69c2b068fc378daa952ba7f163c4a11628f55a4df523b3ef60405160405180910390a46130ef60008383612ba4565b5050565b6000808273ffffffffffffffffffffffffffffffffffffffff163b119050919050565b505050565b600980549050600a600083815260200190815260200160002081905550600981908060018154018082558091505060019003906000526020600020016000909190919091505550565b6000600161317184610fbb565b61317b919061458d565b9050600060086000848152602001908152602001600020549050818114613260576000600760008673ffffffffffffffffffffffffffffffffffffffff1673ffffffffffffffffffffffffffffffffffffffff168152602001908152602001600020600084815260200190815260200160002054905080600760008773ffffffffffffffffffffffffffffffffffffffff1673ffffffffffffffffffffffffffffffffffffffff168152602001908152602001600020600084815260200190815260200160002081905550816008600083815260200190815260200160002081905550505b6008600084815260200190815260200160002060009055600760008573ffffffffffffffffffffffffffffffffffffffff1673ffffffffffffffffffffffffffffffffffffffff16815260200190815260200160002060008381526020019081526020016000206000905550505050565b600060016009805490506132e5919061458d565b90506000600a600084815260200190815260200160002054905060006009838154811061333b577f4e487b7100000000000000000000000000000000000000000000000000000000600052603260045260246000fd5b906000526020600020015490508060098381548110613383577f4e487b7100000000000000000000000000000000000000000000000000000000600052603260045260246000fd5b906000526020600020018190555081600a600083815260200190815260200160002081905550600a60008581526020019081526020016000206000905560098054806133f8577f4e487b7100000000000000000000000000000000000000000000000000000000600052603160045260246000fd5b6001900381819060005260206000200160009055905550505050565b600061341f83610fbb565b905081600760008573ffffffffffffffffffffffffffffffffffffffff1673ffffffffffffffffffffffffffffffffffffffff168152602001908152602001600020600083815260200190815260200160002081905550806008600084815260200190815260200160002081905550505050565b82805461349f90614677565b90600052602060002090601f0160209004810192826134c15760008555613508565b82601f106134da57805160ff1916838001178555613508565b82800160010185558215613508579182015b828111156135075782518255916020019190600101906134ec565b5b5090506135159190613519565b5090565b5b8082111561353257600081600090555060010161351a565b5090565b6000613549613544846143c3565b61439e565b90508281526020810184848401111561356157600080fd5b61356c848285614635565b509392505050565b6000613587613582846143f4565b61439e565b90508281526020810184848401111561359f57600080fd5b6135aa848285614635565b509392505050565b6000813590506135c181614edd565b92915050565b60008083601f8401126135d957600080fd5b8235905067ffffffffffffffff8111156135f257600080fd5b60208301915083602082028301111561360a57600080fd5b9250929050565b60008135905061362081614ef4565b92915050565b60008135905061363581614f0b565b92915050565b60008151905061364a81614f0b565b92915050565b600082601f83011261366157600080fd5b8135613671848260208601613536565b91505092915050565b600082601f83011261368b57600080fd5b813561369b848260208601613574565b91505092915050565b6000813590506136b381614f22565b92915050565b6000602082840312156136cb57600080fd5b60006136d9848285016135b2565b91505092915050565b600080604083850312156136f557600080fd5b6000613703858286016135b2565b9250506020613714858286016135b2565b9150509250929050565b60008060006060848603121561373357600080fd5b6000613741868287016135b2565b9350506020613752868287016135b2565b9250506040613763868287016136a4565b9150509250925092565b6000806000806080858703121561378357600080fd5b6000613791878288016135b2565b94505060206137a2878288016135b2565b93505060406137b3878288016136a4565b925050606085013567ffffffffffffffff8111156137d057600080fd5b6137dc87828801613650565b91505092959194509250565b600080604083850312156137fb57600080fd5b6000613809858286016135b2565b925050602061381a85828601613611565b9150509250929050565b6000806040838503121561383757600080fd5b6000613845858286016135b2565b9250506020613856858286016136a4565b9150509250929050565b6000806020838503121561387357600080fd5b600083013567ffffffffffffffff81111561388d57600080fd5b613899858286016135c7565b92509250509250929050565b6000602082840312156138b757600080fd5b60006138c584828501613626565b91505092915050565b6000602082840312156138e057600080fd5b60006138ee8482850161363b565b91505092915050565b60006020828403121561390957600080fd5b600082013567ffffffffffffffff81111561392357600080fd5b61392f8482850161367a565b91505092915050565b60006020828403121561394a57600080fd5b6000613958848285016136a4565b91505092915050565b600061396d8383613eb2565b60208301905092915050565b613982816145c1565b82525050565b600061399382614435565b61399d8185614463565b93506139a883614425565b8060005b838110156139d95781516139c08882613961565b97506139cb83614456565b9250506001810190506139ac565b5085935050505092915050565b6139ef816145d3565b82525050565b6000613a0082614440565b613a0a8185614474565b9350613a1a818560208601614644565b613a2381614810565b840191505092915050565b6000613a398261444b565b613a438185614490565b9350613a53818560208601614644565b613a5c81614810565b840191505092915050565b6000613a728261444b565b613a7c81856144a1565b9350613a8c818560208601614644565b80840191505092915050565b6000613aa5602b83614490565b9150613ab082614821565b604082019050919050565b6000613ac8603283614490565b9150613ad382614870565b604082019050919050565b6000613aeb602683614490565b9150613af6826148bf565b604082019050919050565b6000613b0e602583614490565b9150613b198261490e565b604082019050919050565b6000613b31601c83614490565b9150613b3c8261495d565b602082019050919050565b6000613b54601f83614490565b9150613b5f82614986565b602082019050919050565b6000613b77602183614490565b9150613b82826149af565b604082019050919050565b6000613b9a602083614490565b9150613ba5826149fe565b602082019050919050565b6000613bbd602483614490565b9150613bc882614a27565b604082019050919050565b6000613be0601983614490565b9150613beb82614a76565b602082019050919050565b6000613c03601f83614490565b9150613c0e82614a9f565b602082019050919050565b6000613c26602983614490565b9150613c3182614ac8565b604082019050919050565b6000613c49602a83614490565b9150613c5482614b17565b604082019050919050565b6000613c6c603e83614490565b9150613c7782614b66565b604082019050919050565b6000613c8f602083614490565b9150613c9a82614bb5565b602082019050919050565b6000613cb26005836144a1565b9150613cbd82614bde565b600582019050919050565b6000613cd5602083614490565b9150613ce082614c07565b602082019050919050565b6000613cf8601a83614490565b9150613d0382614c30565b602082019050919050565b6000613d1b602983614490565b9150613d2682614c59565b604082019050919050565b6000613d3e602f83614490565b9150613d4982614ca8565b604082019050919050565b6000613d61601883614490565b9150613d6c82614cf7565b602082019050919050565b6000613d84602183614490565b9150613d8f82614d20565b604082019050919050565b6000613da7600083614485565b9150613db282614d6f565b600082019050919050565b6000613dca602c83614490565b9150613dd582614d72565b604082019050919050565b6000613ded601583614490565b9150613df882614dc1565b602082019050919050565b6000613e10601983614490565b9150613e1b82614dea565b602082019050919050565b6000613e33601c83614490565b9150613e3e82614e13565b602082019050919050565b6000613e56602e83614490565b9150613e6182614e3c565b604082019050919050565b6000613e79601e83614490565b9150613e8482614e8b565b602082019050919050565b6000613e9c602083614490565b9150613ea782614eb4565b602082019050919050565b613ebb8161462b565b82525050565b613eca8161462b565b82525050565b6000613edc8285613a67565b9150613ee88284613a67565b9150613ef382613ca5565b91508190509392505050565b6000613f0a82613d9a565b9150819050919050565b6000602082019050613f296000830184613979565b92915050565b6000608082019050613f446000830187613979565b613f516020830186613979565b613f5e6040830185613ec1565b8181036060830152613f7081846139f5565b905095945050505050565b60006020820190508181036000830152613f958184613988565b905092915050565b6000602082019050613fb260008301846139e6565b92915050565b60006020820190508181036000830152613fd28184613a2e565b905092915050565b60006020820190508181036000830152613ff381613a98565b9050919050565b6000602082019050818103600083015261401381613abb565b9050919050565b6000602082019050818103600083015261403381613ade565b9050919050565b6000602082019050818103600083015261405381613b01565b9050919050565b6000602082019050818103600083015261407381613b24565b9050919050565b6000602082019050818103600083015261409381613b47565b9050919050565b600060208201905081810360008301526140b381613b6a565b9050919050565b600060208201905081810360008301526140d381613b8d565b9050919050565b600060208201905081810360008301526140f381613bb0565b9050919050565b6000602082019050818103600083015261411381613bd3565b9050919050565b6000602082019050818103600083015261413381613bf6565b9050919050565b6000602082019050818103600083015261415381613c19565b9050919050565b6000602082019050818103600083015261417381613c3c565b9050919050565b6000602082019050818103600083015261419381613c5f565b9050919050565b600060208201905081810360008301526141b381613c82565b9050919050565b600060208201905081810360008301526141d381613cc8565b9050919050565b600060208201905081810360008301526141f381613ceb565b9050919050565b6000602082019050818103600083015261421381613d0e565b9050919050565b6000602082019050818103600083015261423381613d31565b9050919050565b6000602082019050818103600083015261425381613d54565b9050919050565b6000602082019050818103600083015261427381613d77565b9050919050565b6000602082019050818103600083015261429381613dbd565b9050919050565b600060208201905081810360008301526142b381613de0565b9050919050565b600060208201905081810360008301526142d381613e03565b9050919050565b600060208201905081810360008301526142f381613e26565b9050919050565b6000602082019050818103600083015261431381613e49565b9050919050565b6000602082019050818103600083015261433381613e6c565b9050919050565b6000602082019050818103600083015261435381613e8f565b9050919050565b600060208201905061436f6000830184613ec1565b92915050565b600060408201905061438a6000830185613ec1565b6143976020830184613979565b9392505050565b60006143a86143b9565b90506143b482826146a9565b919050565b6000604051905090565b600067ffffffffffffffff8211156143de576143dd6147e1565b5b6143e782614810565b9050602081019050919050565b600067ffffffffffffffff82111561440f5761440e6147e1565b5b61441882614810565b9050602081019050919050565b6000819050602082019050919050565b600081519050919050565b600081519050919050565b600081519050919050565b6000602082019050919050565b600082825260208201905092915050565b600082825260208201905092915050565b600081905092915050565b600082825260208201905092915050565b600081905092915050565b60006144b78261462b565b91506144c28361462b565b9250827fffffffffffffffffffffffffffffffffffffffffffffffffffffffffffffffff038211156144f7576144f6614754565b5b828201905092915050565b600061450d8261462b565b91506145188361462b565b92508261452857614527614783565b5b828204905092915050565b600061453e8261462b565b91506145498361462b565b9250817fffffffffffffffffffffffffffffffffffffffffffffffffffffffffffffffff048311821515161561458257614581614754565b5b828202905092915050565b60006145988261462b565b91506145a38361462b565b9250828210156145b6576145b5614754565b5b828203905092915050565b60006145cc8261460b565b9050919050565b60008115159050919050565b60007fffffffff0000000000000000000000000000000000000000000000000000000082169050919050565b600073ffffffffffffffffffffffffffffffffffffffff82169050919050565b6000819050919050565b82818337600083830152505050565b60005b83811015614662578082015181840152602081019050614647565b83811115614671576000848401525b50505050565b6000600282049050600182168061468f57607f821691505b602082108114156146a3576146a26147b2565b5b50919050565b6146b282614810565b810181811067ffffffffffffffff821117156146d1576146d06147e1565b5b80604052505050565b60006146e58261462b565b91507fffffffffffffffffffffffffffffffffffffffffffffffffffffffffffffffff82141561471857614717614754565b5b600182019050919050565b600061472e8261462b565b91506147398361462b565b92508261474957614748614783565b5b828206905092915050565b7f4e487b7100000000000000000000000000000000000000000000000000000000600052601160045260246000fd5b7f4e487b7100000000000000000000000000000000000000000000000000000000600052601260045260246000fd5b7f4e487b7100000000000000000000000000000000000000000000000000000000600052602260045260246000fd5b7f4e487b7100000000000000000000000000000000000000000000000000000000600052604160045260246000fd5b6000601f19601f8301169050919050565b7f455243373231456e756d657261626c653a206f776e657220696e646578206f7560008201527f74206f6620626f756e6473000000000000000000000000000000000000000000602082015250565b7f4552433732313a207472616e7366657220746f206e6f6e20455243373231526560008201527f63656976657220696d706c656d656e7465720000000000000000000000000000602082015250565b7f4f776e61626c653a206e6577206f776e657220697320746865207a65726f206160008201527f6464726573730000000000000000000000000000000000000000000000000000602082015250565b7f4552433732313a207472616e736665722066726f6d20696e636f72726563742060008201527f6f776e6572000000000000000000000000000000000000000000000000000000602082015250565b7f4552433732313a20746f6b656e20616c7265616479206d696e74656400000000600082015250565b7f596f7520617265206e6f74206f6e207468652050726573616c65204c69737400600082015250565b7f53616c65206d7573742062652061637469766520746f206d696e7420546f6b6560008201527f6e00000000000000000000000000000000000000000000000000000000000000602082015250565b7f4e6f7420656e6f7567682072657365727665206c65667420666f72207465616d600082015250565b7f4552433732313a207472616e7366657220746f20746865207a65726f2061646460008201527f7265737300000000000000000000000000000000000000000000000000000000602082015250565b7f4552433732313a20617070726f766520746f2063616c6c657200000000000000600082015250565b7f45746865722076616c75652073656e74206973206e6f7420636f727265637400600082015250565b7f4552433732313a2061646472657373207a65726f206973206e6f74206120766160008201527f6c6964206f776e65720000000000000000000000000000000000000000000000602082015250565b7f507572636861736520776f756c6420657863656564206d617820737570706c7960008201527f206f6620746f6b656e7300000000000000000000000000000000000000000000602082015250565b7f4552433732313a20617070726f76652063616c6c6572206973206e6f7420746f60008201527f6b656e206f776e6572206e6f7220617070726f76656420666f7220616c6c0000602082015250565b7f4552433732313a206d696e7420746f20746865207a65726f2061646472657373600082015250565b7f2e6a736f6e000000000000000000000000000000000000000000000000000000600082015250565b7f4f776e61626c653a2063616c6c6572206973206e6f7420746865206f776e6572600082015250565b7f43616e27742061646420746865206e756c6c2061646472657373000000000000600082015250565b7f507572636861736520776f756c6420657863656564206d617820737570706c7960008201527f206f6620746f6b656e0000000000000000000000000000000000000000000000602082015250565b7f4552433732314d657461646174613a2055524920717565727920666f72206e6f60008201527f6e6578697374656e7420746f6b656e0000000000000000000000000000000000602082015250565b7f4552433732313a20696e76616c696420746f6b656e2049440000000000000000600082015250565b7f4552433732313a20617070726f76616c20746f2063757272656e74206f776e6560008201527f7200000000000000000000000000000000000000000000000000000000000000602082015250565b50565b7f455243373231456e756d657261626c653a20676c6f62616c20696e646578206f60008201527f7574206f6620626f756e64730000000000000000000000000000000000000000602082015250565b7f50726573616c65206973206e6f74206163746976650000000000000000000000600082015250565b7f6d696e7473207065722077616c6c657420657863656564656400000000000000600082015250565b7f50757263686173652065786365656473206d617820616c6c6f77656400000000600082015250565b7f4552433732313a2063616c6c6572206973206e6f7420746f6b656e206f776e6560008201527f72206e6f7220617070726f766564000000000000000000000000000000000000602082015250565b7f596f75206861766520657863656564656420796f75722033206d696e742e0000600082015250565b7f43616e6e6f742070757263686173652074686973206d616e7920746f6b656e73600082015250565b614ee6816145c1565b8114614ef157600080fd5b50565b614efd816145d3565b8114614f0857600080fd5b50565b614f14816145df565b8114614f1f57600080fd5b50565b614f2b8161462b565b8114614f3657600080fd5b5056fea2646970667358221220be6135b5f0c0bf964823ce1afa0399bc42cbc4f97a294b14e1a2a8a129cea4cc64736f6c63430008040033",
  "linkReferences": {},
  "deployedLinkReferences": {}
}